{
  "contractName": "ElectronicHealthRecords",
  "abi": [
    {
      "anonymous": false,
      "inputs": [
        {
          "indexed": true,
          "internalType": "address",
          "name": "patient",
          "type": "address"
        },
        {
          "indexed": true,
          "internalType": "address",
          "name": "doctor",
          "type": "address"
        },
        {
          "indexed": false,
          "internalType": "bool",
          "name": "canRead",
          "type": "bool"
        },
        {
          "indexed": false,
          "internalType": "bool",
          "name": "canWrite",
          "type": "bool"
        }
      ],
      "name": "AccessGranted",
      "type": "event"
    },
    {
      "anonymous": false,
      "inputs": [
        {
          "indexed": true,
          "internalType": "address",
          "name": "patient",
          "type": "address"
        },
        {
          "indexed": true,
          "internalType": "address",
          "name": "doctor",
          "type": "address"
        }
      ],
      "name": "AccessRevoked",
      "type": "event"
    },
    {
      "anonymous": false,
      "inputs": [
        {
          "indexed": true,
          "internalType": "address",
          "name": "doctor",
          "type": "address"
        }
      ],
      "name": "DoctorSignedUp",
      "type": "event"
    },
    {
      "anonymous": false,
      "inputs": [
        {
          "indexed": true,
          "internalType": "address",
          "name": "patient",
          "type": "address"
        }
      ],
      "name": "PatientSignedUp",
      "type": "event"
    },
    {
      "anonymous": false,
      "inputs": [
        {
          "indexed": true,
          "internalType": "address",
          "name": "patient",
          "type": "address"
        },
        {
          "indexed": true,
          "internalType": "address",
          "name": "doctor",
          "type": "address"
        },
        {
          "indexed": false,
          "internalType": "string",
          "name": "documentName",
          "type": "string"
        }
      ],
      "name": "RecordAdded",
      "type": "event"
    },
    {
      "inputs": [
        {
          "internalType": "address",
          "name": "",
          "type": "address"
        }
      ],
      "name": "doctors",
      "outputs": [
        {
          "internalType": "uint128",
          "name": "aadharId",
          "type": "uint128"
        },
        {
          "internalType": "string",
          "name": "name",
          "type": "string"
        },
        {
          "internalType": "uint16",
          "name": "age",
          "type": "uint16"
        },
        {
          "internalType": "uint128",
          "name": "mobile",
          "type": "uint128"
        },
        {
          "internalType": "string",
          "name": "email",
          "type": "string"
        },
        {
          "internalType": "string",
          "name": "degreeName",
          "type": "string"
        }
      ],
      "stateMutability": "view",
      "type": "function",
      "constant": true
    },
    {
      "inputs": [
        {
          "internalType": "address",
          "name": "",
          "type": "address"
        }
      ],
      "name": "patients",
      "outputs": [
        {
          "internalType": "uint128",
          "name": "aadharId",
          "type": "uint128"
        },
        {
          "internalType": "string",
          "name": "name",
          "type": "string"
        },
        {
          "internalType": "uint16",
          "name": "age",
          "type": "uint16"
        },
        {
          "internalType": "string",
          "name": "gender",
          "type": "string"
        },
        {
          "internalType": "uint128",
          "name": "mobile",
          "type": "uint128"
        },
        {
          "internalType": "string",
          "name": "email",
          "type": "string"
        }
      ],
      "stateMutability": "view",
      "type": "function",
      "constant": true
    },
    {
      "inputs": [
        {
          "internalType": "uint128",
          "name": "_aadharId",
          "type": "uint128"
        },
        {
          "internalType": "string",
          "name": "_name",
          "type": "string"
        },
        {
          "internalType": "uint16",
          "name": "_age",
          "type": "uint16"
        },
        {
          "internalType": "string",
          "name": "_gender",
          "type": "string"
        },
        {
          "internalType": "uint128",
          "name": "_mobile",
          "type": "uint128"
        },
        {
          "internalType": "string",
          "name": "_email",
          "type": "string"
        }
      ],
      "name": "signupPatient",
      "outputs": [],
      "stateMutability": "nonpayable",
      "type": "function"
    },
    {
      "inputs": [
        {
          "internalType": "uint128",
          "name": "_aadharId",
          "type": "uint128"
        },
        {
          "internalType": "string",
          "name": "_name",
          "type": "string"
        },
        {
          "internalType": "uint16",
          "name": "_age",
          "type": "uint16"
        },
        {
          "internalType": "uint128",
          "name": "_mobile",
          "type": "uint128"
        },
        {
          "internalType": "string",
          "name": "_email",
          "type": "string"
        },
        {
          "internalType": "string",
          "name": "_degreeName",
          "type": "string"
        }
      ],
      "name": "signupDoctor",
      "outputs": [],
      "stateMutability": "nonpayable",
      "type": "function"
    },
    {
      "inputs": [
        {
          "internalType": "address",
          "name": "doctor",
          "type": "address"
        },
        {
          "internalType": "bool",
          "name": "canRead",
          "type": "bool"
        },
        {
          "internalType": "bool",
          "name": "canWrite",
          "type": "bool"
        }
      ],
      "name": "grantAccess",
      "outputs": [],
      "stateMutability": "nonpayable",
      "type": "function"
    },
    {
      "inputs": [
        {
          "internalType": "address",
          "name": "doctor",
          "type": "address"
        }
      ],
      "name": "revokeAccess",
      "outputs": [],
      "stateMutability": "nonpayable",
      "type": "function"
    },
    {
      "inputs": [
        {
          "internalType": "address",
          "name": "patient",
          "type": "address"
        },
        {
          "internalType": "string",
          "name": "date",
          "type": "string"
        },
        {
          "internalType": "string",
          "name": "data",
          "type": "string"
        },
        {
          "internalType": "string",
          "name": "documentName",
          "type": "string"
        },
        {
          "internalType": "string",
          "name": "documentCid",
          "type": "string"
        }
      ],
      "name": "addRecord",
      "outputs": [],
      "stateMutability": "nonpayable",
      "type": "function"
    },
    {
      "inputs": [
        {
          "internalType": "string",
          "name": "date",
          "type": "string"
        },
        {
          "internalType": "string",
          "name": "data",
          "type": "string"
        },
        {
          "internalType": "string",
          "name": "documentName",
          "type": "string"
        },
        {
          "internalType": "string",
          "name": "documentCid",
          "type": "string"
        }
      ],
      "name": "addMyRecord",
      "outputs": [],
      "stateMutability": "nonpayable",
      "type": "function"
    },
    {
      "inputs": [
        {
          "internalType": "address",
          "name": "patient",
          "type": "address"
        }
      ],
      "name": "getRecords",
      "outputs": [
        {
          "components": [
            {
              "internalType": "string",
              "name": "date",
              "type": "string"
            },
            {
              "internalType": "string",
              "name": "data",
              "type": "string"
            },
            {
              "internalType": "string",
              "name": "doctorName",
              "type": "string"
            },
            {
              "internalType": "string",
              "name": "documentName",
              "type": "string"
            },
            {
              "internalType": "string",
              "name": "documentCid",
              "type": "string"
            },
            {
              "internalType": "address",
              "name": "owner",
              "type": "address"
            }
          ],
          "internalType": "struct ElectronicHealthRecords.HealthRecord[]",
          "name": "",
          "type": "tuple[]"
        }
      ],
      "stateMutability": "view",
      "type": "function",
      "constant": true
    },
    {
      "inputs": [],
      "name": "getMyRecords",
      "outputs": [
        {
          "components": [
            {
              "internalType": "string",
              "name": "date",
              "type": "string"
            },
            {
              "internalType": "string",
              "name": "data",
              "type": "string"
            },
            {
              "internalType": "string",
              "name": "doctorName",
              "type": "string"
            },
            {
              "internalType": "string",
              "name": "documentName",
              "type": "string"
            },
            {
              "internalType": "string",
              "name": "documentCid",
              "type": "string"
            },
            {
              "internalType": "address",
              "name": "owner",
              "type": "address"
            }
          ],
          "internalType": "struct ElectronicHealthRecords.HealthRecord[]",
          "name": "",
          "type": "tuple[]"
        }
      ],
      "stateMutability": "view",
      "type": "function",
      "constant": true
    },
    {
      "inputs": [],
      "name": "getMyPatients",
      "outputs": [
        {
          "internalType": "address[]",
          "name": "",
          "type": "address[]"
        }
      ],
      "stateMutability": "view",
      "type": "function",
      "constant": true
    }
  ],
  "bytecode": "0x608060405234801561001057600080fd5b50613462806100206000396000f3fe608060405234801561001057600080fd5b50600436106100a95760003560e01c8063618fce0e11610071578063618fce0e1461015557806385e68531146101715780639b0a8fed1461018d578063a0076e84146101a9578063a9583c22146101d9578063e76637ce1461020e576100a9565b80630869cfbc146100ae5780631b72fdeb146100e3578063413e63ad146100ff5780634142f4251461011b578063441131c914610137575b600080fd5b6100c860048036038101906100c391906123b0565b61022c565b6040516100da969594939291906124b5565b60405180910390f35b6100fd60048036038101906100f891906126b8565b610446565b005b61011960048036038101906101149190612799565b610738565b005b61013560048036038101906101309190612884565b610b55565b005b61013f610e48565b60405161014c9190612a23565b60405180910390f35b61016f600480360381019061016a9190612a45565b610fc6565b005b61018b600480360381019061018691906123b0565b61125a565b005b6101a760048036038101906101a29190612b54565b611410565b005b6101c360048036038101906101be91906123b0565b611759565b6040516101d09190612d58565b60405180910390f35b6101f360048036038101906101ee91906123b0565b611ca6565b60405161020596959493929190612d7a565b60405180910390f35b610216611ec0565b6040516102239190612d58565b60405180910390f35b60006020528060005260406000206000915090508060000160009054906101000a90046fffffffffffffffffffffffffffffffff169080600101805461027190612e1f565b80601f016020809104026020016040519081016040528092919081815260200182805461029d90612e1f565b80156102ea5780601f106102bf576101008083540402835291602001916102ea565b820191906000526020600020905b8154815290600101906020018083116102cd57829003601f168201915b5050505050908060020160009054906101000a900461ffff169080600301805461031390612e1f565b80601f016020809104026020016040519081016040528092919081815260200182805461033f90612e1f565b801561038c5780601f106103615761010080835404028352916020019161038c565b820191906000526020600020905b81548152906001019060200180831161036f57829003601f168201915b5050505050908060040160009054906101000a90046fffffffffffffffffffffffffffffffff16908060050180546103c390612e1f565b80601f01602080910402602001604051908101604052809291908181526020018280546103ef90612e1f565b801561043c5780601f106104115761010080835404028352916020019161043c565b820191906000526020600020905b81548152906001019060200180831161041f57829003601f168201915b5050505050905086565b60008060003373ffffffffffffffffffffffffffffffffffffffff1673ffffffffffffffffffffffffffffffffffffffff16815260200190815260200160002060000160009054906101000a90046fffffffffffffffffffffffffffffffff166fffffffffffffffffffffffffffffffff1614801561053557506000600160003373ffffffffffffffffffffffffffffffffffffffff1673ffffffffffffffffffffffffffffffffffffffff16815260200190815260200160002060000160009054906101000a90046fffffffffffffffffffffffffffffffff166fffffffffffffffffffffffffffffffff16145b610574576040517f08c379a000000000000000000000000000000000000000000000000000000000815260040161056b90612e9c565b60405180910390fd5b6040518060c00160405280876fffffffffffffffffffffffffffffffff1681526020018681526020018561ffff168152602001848152602001836fffffffffffffffffffffffffffffffff168152602001828152506000803373ffffffffffffffffffffffffffffffffffffffff1673ffffffffffffffffffffffffffffffffffffffff16815260200190815260200160002060008201518160000160006101000a8154816fffffffffffffffffffffffffffffffff02191690836fffffffffffffffffffffffffffffffff160217905550602082015181600101908161065b9190613072565b5060408201518160020160006101000a81548161ffff021916908361ffff16021790555060608201518160030190816106949190613072565b5060808201518160040160006101000a8154816fffffffffffffffffffffffffffffffff02191690836fffffffffffffffffffffffffffffffff16021790555060a08201518160050190816106e99190613072565b509050503373ffffffffffffffffffffffffffffffffffffffff167fc8b4da893f5eb2bf0be6ed2dae6f7aefad285269803cb54e7ce00257fd0ad6c860405160405180910390a2505050505050565b6000600160003373ffffffffffffffffffffffffffffffffffffffff1673ffffffffffffffffffffffffffffffffffffffff16815260200190815260200160002060000160009054906101000a90046fffffffffffffffffffffffffffffffff166fffffffffffffffffffffffffffffffff16036107eb576040517f08c379a00000000000000000000000000000000000000000000000000000000081526004016107e290613190565b60405180910390fd5b600360008673ffffffffffffffffffffffffffffffffffffffff1673ffffffffffffffffffffffffffffffffffffffff16815260200190815260200160002060003373ffffffffffffffffffffffffffffffffffffffff1673ffffffffffffffffffffffffffffffffffffffff16815260200190815260200160002060000160019054906101000a900460ff166108b7576040517f08c379a00000000000000000000000000000000000000000000000000000000081526004016108ae90613222565b60405180910390fd5b60006040518060c00160405280868152602001858152602001600160003373ffffffffffffffffffffffffffffffffffffffff1673ffffffffffffffffffffffffffffffffffffffff168152602001908152602001600020600101805461091d90612e1f565b80601f016020809104026020016040519081016040528092919081815260200182805461094990612e1f565b80156109965780601f1061096b57610100808354040283529160200191610996565b820191906000526020600020905b81548152906001019060200180831161097957829003601f168201915b505050505081526020018481526020018381526020018773ffffffffffffffffffffffffffffffffffffffff168152509050600260008773ffffffffffffffffffffffffffffffffffffffff1673ffffffffffffffffffffffffffffffffffffffff1681526020019081526020016000208190806001815401808255809150506001900390600052602060002090600602016000909190919091506000820151816000019081610a469190613072565b506020820151816001019081610a5c9190613072565b506040820151816002019081610a729190613072565b506060820151816003019081610a889190613072565b506080820151816004019081610a9e9190613072565b5060a08201518160050160006101000a81548173ffffffffffffffffffffffffffffffffffffffff021916908373ffffffffffffffffffffffffffffffffffffffff16021790555050503373ffffffffffffffffffffffffffffffffffffffff168673ffffffffffffffffffffffffffffffffffffffff167f977dc7867dd6fb513af3d4bb11f4457a5052487f13412788530b454c0b7dfa2c85604051610b459190613242565b60405180910390a3505050505050565b60008060003373ffffffffffffffffffffffffffffffffffffffff1673ffffffffffffffffffffffffffffffffffffffff16815260200190815260200160002060000160009054906101000a90046fffffffffffffffffffffffffffffffff166fffffffffffffffffffffffffffffffff16148015610c4457506000600160003373ffffffffffffffffffffffffffffffffffffffff1673ffffffffffffffffffffffffffffffffffffffff16815260200190815260200160002060000160009054906101000a90046fffffffffffffffffffffffffffffffff166fffffffffffffffffffffffffffffffff16145b610c83576040517f08c379a0000000000000000000000000000000000000000000000000000000008152600401610c7a90612e9c565b60405180910390fd5b6040518060c00160405280876fffffffffffffffffffffffffffffffff1681526020018681526020018561ffff168152602001846fffffffffffffffffffffffffffffffff16815260200183815260200182815250600160003373ffffffffffffffffffffffffffffffffffffffff1673ffffffffffffffffffffffffffffffffffffffff16815260200190815260200160002060008201518160000160006101000a8154816fffffffffffffffffffffffffffffffff02191690836fffffffffffffffffffffffffffffffff1602179055506020820151816001019081610d6b9190613072565b5060408201518160020160006101000a81548161ffff021916908361ffff16021790555060608201518160020160026101000a8154816fffffffffffffffffffffffffffffffff02191690836fffffffffffffffffffffffffffffffff1602179055506080820151816003019081610de39190613072565b5060a0820151816004019081610df99190613072565b509050503373ffffffffffffffffffffffffffffffffffffffff167fbe2634cde8164aa7e4af2b70eb1dd3f10d1ccb766d9b3c5085c1e23f6db0eb0e60405160405180910390a2505050505050565b60606000600160003373ffffffffffffffffffffffffffffffffffffffff1673ffffffffffffffffffffffffffffffffffffffff16815260200190815260200160002060000160009054906101000a90046fffffffffffffffffffffffffffffffff166fffffffffffffffffffffffffffffffff1603610efd576040517f08c379a0000000000000000000000000000000000000000000000000000000008152600401610ef490613190565b60405180910390fd5b600460003373ffffffffffffffffffffffffffffffffffffffff1673ffffffffffffffffffffffffffffffffffffffff168152602001908152602001600020805480602002602001604051908101604052809291908181526020018280548015610fbc57602002820191906000526020600020905b8160009054906101000a900473ffffffffffffffffffffffffffffffffffffffff1673ffffffffffffffffffffffffffffffffffffffff1681526020019060010190808311610f72575b5050505050905090565b60008060003373ffffffffffffffffffffffffffffffffffffffff1673ffffffffffffffffffffffffffffffffffffffff16815260200190815260200160002060000160009054906101000a90046fffffffffffffffffffffffffffffffff166fffffffffffffffffffffffffffffffff1603611078576040517f08c379a000000000000000000000000000000000000000000000000000000000815260040161106f906132b0565b60405180910390fd5b60006040518060c001604052808681526020018581526020016040518060200160405280600081525081526020018481526020018381526020013373ffffffffffffffffffffffffffffffffffffffff168152509050600260003373ffffffffffffffffffffffffffffffffffffffff1673ffffffffffffffffffffffffffffffffffffffff168152602001908152602001600020819080600181540180825580915050600190039060005260206000209060060201600090919091909150600082015181600001908161114c9190613072565b5060208201518160010190816111629190613072565b5060408201518160020190816111789190613072565b50606082015181600301908161118e9190613072565b5060808201518160040190816111a49190613072565b5060a08201518160050160006101000a81548173ffffffffffffffffffffffffffffffffffffffff021916908373ffffffffffffffffffffffffffffffffffffffff16021790555050503373ffffffffffffffffffffffffffffffffffffffff163373ffffffffffffffffffffffffffffffffffffffff167f977dc7867dd6fb513af3d4bb11f4457a5052487f13412788530b454c0b7dfa2c8560405161124b9190613242565b60405180910390a35050505050565b60008060003373ffffffffffffffffffffffffffffffffffffffff1673ffffffffffffffffffffffffffffffffffffffff16815260200190815260200160002060000160009054906101000a90046fffffffffffffffffffffffffffffffff166fffffffffffffffffffffffffffffffff160361130c576040517f08c379a0000000000000000000000000000000000000000000000000000000008152600401611303906132b0565b60405180910390fd5b600360003373ffffffffffffffffffffffffffffffffffffffff1673ffffffffffffffffffffffffffffffffffffffff16815260200190815260200160002060008273ffffffffffffffffffffffffffffffffffffffff1673ffffffffffffffffffffffffffffffffffffffff168152602001908152602001600020600080820160006101000a81549060ff02191690556000820160016101000a81549060ff021916905550508073ffffffffffffffffffffffffffffffffffffffff163373ffffffffffffffffffffffffffffffffffffffff167f825c8be24eb0df19500f63e86c29e7d0d951e73056b889b891d85e40938d9b6e60405160405180910390a350565b60008060003373ffffffffffffffffffffffffffffffffffffffff1673ffffffffffffffffffffffffffffffffffffffff16815260200190815260200160002060000160009054906101000a90046fffffffffffffffffffffffffffffffff166fffffffffffffffffffffffffffffffff16036114c2576040517f08c379a00000000000000000000000000000000000000000000000000000000081526004016114b9906132b0565b60405180910390fd5b6000600160008573ffffffffffffffffffffffffffffffffffffffff1673ffffffffffffffffffffffffffffffffffffffff16815260200190815260200160002060000160009054906101000a90046fffffffffffffffffffffffffffffffff166fffffffffffffffffffffffffffffffff1603611575576040517f08c379a000000000000000000000000000000000000000000000000000000000815260040161156c90613342565b60405180910390fd5b60405180604001604052808315158152602001821515815250600360003373ffffffffffffffffffffffffffffffffffffffff1673ffffffffffffffffffffffffffffffffffffffff16815260200190815260200160002060008573ffffffffffffffffffffffffffffffffffffffff1673ffffffffffffffffffffffffffffffffffffffff16815260200190815260200160002060008201518160000160006101000a81548160ff02191690831515021790555060208201518160000160016101000a81548160ff021916908315150217905550905050600460008473ffffffffffffffffffffffffffffffffffffffff1673ffffffffffffffffffffffffffffffffffffffff168152602001908152602001600020339080600181540180825580915050600190039060005260206000200160009091909190916101000a81548173ffffffffffffffffffffffffffffffffffffffff021916908373ffffffffffffffffffffffffffffffffffffffff1602179055508273ffffffffffffffffffffffffffffffffffffffff163373ffffffffffffffffffffffffffffffffffffffff167fd90d8bed7b5d1223f1715bba95c79a01117e4d77e4f4afe61671c3a4829500c0848460405161174c929190613371565b60405180910390a3505050565b60608173ffffffffffffffffffffffffffffffffffffffff163373ffffffffffffffffffffffffffffffffffffffff16148061189b57506000600160003373ffffffffffffffffffffffffffffffffffffffff1673ffffffffffffffffffffffffffffffffffffffff16815260200190815260200160002060000160009054906101000a90046fffffffffffffffffffffffffffffffff166fffffffffffffffffffffffffffffffff161415801561189a5750600360008373ffffffffffffffffffffffffffffffffffffffff1673ffffffffffffffffffffffffffffffffffffffff16815260200190815260200160002060003373ffffffffffffffffffffffffffffffffffffffff1673ffffffffffffffffffffffffffffffffffffffff16815260200190815260200160002060000160009054906101000a900460ff165b5b6118da576040517f08c379a00000000000000000000000000000000000000000000000000000000081526004016118d19061340c565b60405180910390fd5b600260008373ffffffffffffffffffffffffffffffffffffffff1673ffffffffffffffffffffffffffffffffffffffff168152602001908152602001600020805480602002602001604051908101604052809291908181526020016000905b82821015611c9b57838290600052602060002090600602016040518060c001604052908160008201805461196c90612e1f565b80601f016020809104026020016040519081016040528092919081815260200182805461199890612e1f565b80156119e55780601f106119ba576101008083540402835291602001916119e5565b820191906000526020600020905b8154815290600101906020018083116119c857829003601f168201915b505050505081526020016001820180546119fe90612e1f565b80601f0160208091040260200160405190810160405280929190818152602001828054611a2a90612e1f565b8015611a775780601f10611a4c57610100808354040283529160200191611a77565b820191906000526020600020905b815481529060010190602001808311611a5a57829003601f168201915b50505050508152602001600282018054611a9090612e1f565b80601f0160208091040260200160405190810160405280929190818152602001828054611abc90612e1f565b8015611b095780601f10611ade57610100808354040283529160200191611b09565b820191906000526020600020905b815481529060010190602001808311611aec57829003601f168201915b50505050508152602001600382018054611b2290612e1f565b80601f0160208091040260200160405190810160405280929190818152602001828054611b4e90612e1f565b8015611b9b5780601f10611b7057610100808354040283529160200191611b9b565b820191906000526020600020905b815481529060010190602001808311611b7e57829003601f168201915b50505050508152602001600482018054611bb490612e1f565b80601f0160208091040260200160405190810160405280929190818152602001828054611be090612e1f565b8015611c2d5780601f10611c0257610100808354040283529160200191611c2d565b820191906000526020600020905b815481529060010190602001808311611c1057829003601f168201915b505050505081526020016005820160009054906101000a900473ffffffffffffffffffffffffffffffffffffffff1673ffffffffffffffffffffffffffffffffffffffff1673ffffffffffffffffffffffffffffffffffffffff168152505081526020019060010190611939565b505050509050919050565b60016020528060005260406000206000915090508060000160009054906101000a90046fffffffffffffffffffffffffffffffff1690806001018054611ceb90612e1f565b80601f0160208091040260200160405190810160405280929190818152602001828054611d1790612e1f565b8015611d645780601f10611d3957610100808354040283529160200191611d64565b820191906000526020600020905b815481529060010190602001808311611d4757829003601f168201915b5050505050908060020160009054906101000a900461ffff16908060020160029054906101000a90046fffffffffffffffffffffffffffffffff1690806003018054611daf90612e1f565b80601f0160208091040260200160405190810160405280929190818152602001828054611ddb90612e1f565b8015611e285780601f10611dfd57610100808354040283529160200191611e28565b820191906000526020600020905b815481529060010190602001808311611e0b57829003601f168201915b505050505090806004018054611e3d90612e1f565b80601f0160208091040260200160405190810160405280929190818152602001828054611e6990612e1f565b8015611eb65780601f10611e8b57610100808354040283529160200191611eb6565b820191906000526020600020905b815481529060010190602001808311611e9957829003601f168201915b5050505050905086565b606060008060003373ffffffffffffffffffffffffffffffffffffffff1673ffffffffffffffffffffffffffffffffffffffff16815260200190815260200160002060000160009054906101000a90046fffffffffffffffffffffffffffffffff166fffffffffffffffffffffffffffffffff1603611f74576040517f08c379a0000000000000000000000000000000000000000000000000000000008152600401611f6b906132b0565b60405180910390fd5b600260003373ffffffffffffffffffffffffffffffffffffffff1673ffffffffffffffffffffffffffffffffffffffff168152602001908152602001600020805480602002602001604051908101604052809291908181526020016000905b8282101561233557838290600052602060002090600602016040518060c001604052908160008201805461200690612e1f565b80601f016020809104026020016040519081016040528092919081815260200182805461203290612e1f565b801561207f5780601f106120545761010080835404028352916020019161207f565b820191906000526020600020905b81548152906001019060200180831161206257829003601f168201915b5050505050815260200160018201805461209890612e1f565b80601f01602080910402602001604051908101604052809291908181526020018280546120c490612e1f565b80156121115780601f106120e657610100808354040283529160200191612111565b820191906000526020600020905b8154815290600101906020018083116120f457829003601f168201915b5050505050815260200160028201805461212a90612e1f565b80601f016020809104026020016040519081016040528092919081815260200182805461215690612e1f565b80156121a35780601f10612178576101008083540402835291602001916121a3565b820191906000526020600020905b81548152906001019060200180831161218657829003601f168201915b505050505081526020016003820180546121bc90612e1f565b80601f01602080910402602001604051908101604052809291908181526020018280546121e890612e1f565b80156122355780601f1061220a57610100808354040283529160200191612235565b820191906000526020600020905b81548152906001019060200180831161221857829003601f168201915b5050505050815260200160048201805461224e90612e1f565b80601f016020809104026020016040519081016040528092919081815260200182805461227a90612e1f565b80156122c75780601f1061229c576101008083540402835291602001916122c7565b820191906000526020600020905b8154815290600101906020018083116122aa57829003601f168201915b505050505081526020016005820160009054906101000a900473ffffffffffffffffffffffffffffffffffffffff1673ffffffffffffffffffffffffffffffffffffffff1673ffffffffffffffffffffffffffffffffffffffff168152505081526020019060010190611fd3565b50505050905090565b6000604051905090565b600080fd5b600080fd5b600073ffffffffffffffffffffffffffffffffffffffff82169050919050565b600061237d82612352565b9050919050565b61238d81612372565b811461239857600080fd5b50565b6000813590506123aa81612384565b92915050565b6000602082840312156123c6576123c5612348565b5b60006123d48482850161239b565b91505092915050565b60006fffffffffffffffffffffffffffffffff82169050919050565b612402816123dd565b82525050565b600081519050919050565b600082825260208201905092915050565b60005b83811015612442578082015181840152602081019050612427565b60008484015250505050565b6000601f19601f8301169050919050565b600061246a82612408565b6124748185612413565b9350612484818560208601612424565b61248d8161244e565b840191505092915050565b600061ffff82169050919050565b6124af81612498565b82525050565b600060c0820190506124ca60008301896123f9565b81810360208301526124dc818861245f565b90506124eb60408301876124a6565b81810360608301526124fd818661245f565b905061250c60808301856123f9565b81810360a083015261251e818461245f565b9050979650505050505050565b612534816123dd565b811461253f57600080fd5b50565b6000813590506125518161252b565b92915050565b600080fd5b600080fd5b7f4e487b7100000000000000000000000000000000000000000000000000000000600052604160045260246000fd5b6125998261244e565b810181811067ffffffffffffffff821117156125b8576125b7612561565b5b80604052505050565b60006125cb61233e565b90506125d78282612590565b919050565b600067ffffffffffffffff8211156125f7576125f6612561565b5b6126008261244e565b9050602081019050919050565b82818337600083830152505050565b600061262f61262a846125dc565b6125c1565b90508281526020810184848401111561264b5761264a61255c565b5b61265684828561260d565b509392505050565b600082601f83011261267357612672612557565b5b813561268384826020860161261c565b91505092915050565b61269581612498565b81146126a057600080fd5b50565b6000813590506126b28161268c565b92915050565b60008060008060008060c087890312156126d5576126d4612348565b5b60006126e389828a01612542565b965050602087013567ffffffffffffffff8111156127045761270361234d565b5b61271089828a0161265e565b955050604061272189828a016126a3565b945050606087013567ffffffffffffffff8111156127425761274161234d565b5b61274e89828a0161265e565b935050608061275f89828a01612542565b92505060a087013567ffffffffffffffff8111156127805761277f61234d565b5b61278c89828a0161265e565b9150509295509295509295565b600080600080600060a086880312156127b5576127b4612348565b5b60006127c38882890161239b565b955050602086013567ffffffffffffffff8111156127e4576127e361234d565b5b6127f08882890161265e565b945050604086013567ffffffffffffffff8111156128115761281061234d565b5b61281d8882890161265e565b935050606086013567ffffffffffffffff81111561283e5761283d61234d565b5b61284a8882890161265e565b925050608086013567ffffffffffffffff81111561286b5761286a61234d565b5b6128778882890161265e565b9150509295509295909350565b60008060008060008060c087890312156128a1576128a0612348565b5b60006128af89828a01612542565b965050602087013567ffffffffffffffff8111156128d0576128cf61234d565b5b6128dc89828a0161265e565b95505060406128ed89828a016126a3565b94505060606128fe89828a01612542565b935050608087013567ffffffffffffffff81111561291f5761291e61234d565b5b61292b89828a0161265e565b92505060a087013567ffffffffffffffff81111561294c5761294b61234d565b5b61295889828a0161265e565b9150509295509295509295565b600081519050919050565b600082825260208201905092915050565b6000819050602082019050919050565b61299a81612372565b82525050565b60006129ac8383612991565b60208301905092915050565b6000602082019050919050565b60006129d082612965565b6129da8185612970565b93506129e583612981565b8060005b83811015612a165781516129fd88826129a0565b9750612a08836129b8565b9250506001810190506129e9565b5085935050505092915050565b60006020820190508181036000830152612a3d81846129c5565b905092915050565b60008060008060808587031215612a5f57612a5e612348565b5b600085013567ffffffffffffffff811115612a7d57612a7c61234d565b5b612a898782880161265e565b945050602085013567ffffffffffffffff811115612aaa57612aa961234d565b5b612ab68782880161265e565b935050604085013567ffffffffffffffff811115612ad757612ad661234d565b5b612ae38782880161265e565b925050606085013567ffffffffffffffff811115612b0457612b0361234d565b5b612b108782880161265e565b91505092959194509250565b60008115159050919050565b612b3181612b1c565b8114612b3c57600080fd5b50565b600081359050612b4e81612b28565b92915050565b600080600060608486031215612b6d57612b6c612348565b5b6000612b7b8682870161239b565b9350506020612b8c86828701612b3f565b9250506040612b9d86828701612b3f565b9150509250925092565b600081519050919050565b600082825260208201905092915050565b6000819050602082019050919050565b600082825260208201905092915050565b6000612bef82612408565b612bf98185612bd3565b9350612c09818560208601612424565b612c128161244e565b840191505092915050565b600060c0830160008301518482036000860152612c3a8282612be4565b91505060208301518482036020860152612c548282612be4565b91505060408301518482036040860152612c6e8282612be4565b91505060608301518482036060860152612c888282612be4565b91505060808301518482036080860152612ca28282612be4565b91505060a0830151612cb760a0860182612991565b508091505092915050565b6000612cce8383612c1d565b905092915050565b6000602082019050919050565b6000612cee82612ba7565b612cf88185612bb2565b935083602082028501612d0a85612bc3565b8060005b85811015612d465784840389528151612d278582612cc2565b9450612d3283612cd6565b925060208a01995050600181019050612d0e565b50829750879550505050505092915050565b60006020820190508181036000830152612d728184612ce3565b905092915050565b600060c082019050612d8f60008301896123f9565b8181036020830152612da1818861245f565b9050612db060408301876124a6565b612dbd60608301866123f9565b8181036080830152612dcf818561245f565b905081810360a0830152612de3818461245f565b9050979650505050505050565b7f4e487b7100000000000000000000000000000000000000000000000000000000600052602260045260246000fd5b60006002820490506001821680612e3757607f821691505b602082108103612e4a57612e49612df0565b5b50919050565b7f416c726561647920726567697374657265640000000000000000000000000000600082015250565b6000612e86601283612413565b9150612e9182612e50565b602082019050919050565b60006020820190508181036000830152612eb581612e79565b9050919050565b60008190508160005260206000209050919050565b60006020601f8301049050919050565b600082821b905092915050565b600060088302612f1e7fffffffffffffffffffffffffffffffffffffffffffffffffffffffffffffffff82612ee1565b612f288683612ee1565b95508019841693508086168417925050509392505050565b6000819050919050565b6000819050919050565b6000612f6f612f6a612f6584612f40565b612f4a565b612f40565b9050919050565b6000819050919050565b612f8983612f54565b612f9d612f9582612f76565b848454612eee565b825550505050565b600090565b612fb2612fa5565b612fbd818484612f80565b505050565b5b81811015612fe157612fd6600082612faa565b600181019050612fc3565b5050565b601f82111561302657612ff781612ebc565b61300084612ed1565b8101602085101561300f578190505b61302361301b85612ed1565b830182612fc2565b50505b505050565b600082821c905092915050565b60006130496000198460080261302b565b1980831691505092915050565b60006130628383613038565b9150826002028217905092915050565b61307b82612408565b67ffffffffffffffff81111561309457613093612561565b5b61309e8254612e1f565b6130a9828285612fe5565b600060209050601f8311600181146130dc57600084156130ca578287015190505b6130d48582613056565b86555061313c565b601f1984166130ea86612ebc565b60005b82811015613112578489015182556001820191506020850194506020810190506130ed565b8683101561312f578489015161312b601f891682613038565b8355505b6001600288020188555050505b505050505050565b7f4e6f742072656769737465726564206173206120646f63746f72000000000000600082015250565b600061317a601a83612413565b915061318582613144565b602082019050919050565b600060208201905081810360008301526131a98161316d565b9050919050565b7f4e6f2077726974652061636365737320746f2070617469656e7427732072656360008201527f6f72647300000000000000000000000000000000000000000000000000000000602082015250565b600061320c602483612413565b9150613217826131b0565b604082019050919050565b6000602082019050818103600083015261323b816131ff565b9050919050565b6000602082019050818103600083015261325c818461245f565b905092915050565b7f4e6f74207265676973746572656420617320612070617469656e740000000000600082015250565b600061329a601b83612413565b91506132a582613264565b602082019050919050565b600060208201905081810360008301526132c98161328d565b9050919050565b7f4163636573732063616e206f6e6c79206265206772616e74656420746f20726560008201527f676973746572656420646f63746f727300000000000000000000000000000000602082015250565b600061332c603083612413565b9150613337826132d0565b604082019050919050565b6000602082019050818103600083015261335b8161331f565b9050919050565b61336b81612b1c565b82525050565b60006040820190506133866000830185613362565b6133936020830184613362565b9392505050565b7f4e6f20726561642061636365737320746f2070617469656e742773207265636f60008201527f7264730000000000000000000000000000000000000000000000000000000000602082015250565b60006133f6602383612413565b91506134018261339a565b604082019050919050565b60006020820190508181036000830152613425816133e9565b905091905056fea26469706673582212209fb6e4c3617b4132a2ef225e4a797bad419f3fec9c7e8d0a6136cea5f3e29d5b64736f6c63430008130033",
  "immutableReferences": {},
  "source": "// SPDX-License-Identifier: MIT\r\npragma solidity ^0.8.0;\r\n\r\ncontract ElectronicHealthRecords {\r\n\r\n    struct Patient {\r\n        uint128 aadharId;\r\n        string name;\r\n        uint16 age;\r\n        string gender;\r\n        uint128 mobile;\r\n        string email;\r\n    }\r\n\r\n    struct Doctor {\r\n        uint128 aadharId;\r\n        string name;\r\n        uint16 age;\r\n        uint128 mobile;\r\n        string email;\r\n        string degreeName;\r\n    }\r\n\r\n    struct HealthRecord {\r\n        string date;\r\n        string data;\r\n        string doctorName;     // Name of the doctor associated with this record\r\n        string documentName;   // Optional name for the document\r\n        string documentCid;    // Optional IPFS CID for document storage\r\n        address owner;\r\n    }\r\n\r\n    struct AccessControl {\r\n        bool canRead;\r\n        bool canWrite;\r\n    }\r\n\r\n    mapping(address => Patient) public patients;\r\n    mapping(address => Doctor) public doctors;\r\n    mapping(address => HealthRecord[]) private patientRecords;\r\n    mapping(address => mapping(address => AccessControl)) private accessPermissions;  // patient => doctor => access\r\n    mapping(address => address[]) private doctorPatients; // doctor => list of patients\r\n\r\n    event PatientSignedUp(address indexed patient);\r\n    event DoctorSignedUp(address indexed doctor);\r\n    event AccessGranted(address indexed patient, address indexed doctor, bool canRead, bool canWrite);\r\n    event AccessRevoked(address indexed patient, address indexed doctor);\r\n    event RecordAdded(address indexed patient, address indexed doctor, string documentName);\r\n\r\n    modifier onlyPatient() {\r\n        require(patients[msg.sender].aadharId != 0, \"Not registered as a patient\");\r\n        _;\r\n    }\r\n\r\n    modifier onlyDoctor() {\r\n        require(doctors[msg.sender].aadharId != 0, \"Not registered as a doctor\");\r\n        _;\r\n    }\r\n\r\n    // Patient signs up\r\n    function signupPatient(\r\n        uint128 _aadharId,\r\n        string memory _name,\r\n        uint16 _age,\r\n        string memory _gender,\r\n        uint128 _mobile,\r\n        string memory _email\r\n    ) public {\r\n        require(patients[msg.sender].aadharId == 0 && doctors[msg.sender].aadharId == 0, \"Already registered\");\r\n        \r\n        patients[msg.sender] = Patient({\r\n            aadharId: _aadharId,\r\n            name: _name,\r\n            age: _age,\r\n            gender: _gender,\r\n            mobile: _mobile,\r\n            email: _email\r\n        });\r\n        \r\n        emit PatientSignedUp(msg.sender);\r\n    }\r\n    \r\n    // Doctor signs up\r\n    function signupDoctor(\r\n        uint128 _aadharId,\r\n        string memory _name,\r\n        uint16 _age,\r\n        uint128 _mobile,\r\n        string memory _email,\r\n        string memory _degreeName\r\n    ) public {\r\n        require(patients[msg.sender].aadharId == 0 && doctors[msg.sender].aadharId == 0, \"Already registered\");\r\n\r\n        doctors[msg.sender] = Doctor({\r\n            aadharId: _aadharId,\r\n            name: _name,\r\n            age: _age,\r\n            mobile: _mobile,\r\n            email: _email,\r\n            degreeName: _degreeName\r\n        });\r\n        \r\n        emit DoctorSignedUp(msg.sender);\r\n    }\r\n    \r\n    // Patient grants access to a doctor\r\n    function grantAccess(address doctor, bool canRead, bool canWrite) public onlyPatient {\r\n        require(doctors[doctor].aadharId != 0, \"Access can only be granted to registered doctors\");\r\n        \r\n        accessPermissions[msg.sender][doctor] = AccessControl(canRead, canWrite);\r\n        doctorPatients[doctor].push(msg.sender);  // Track patients of the doctor\r\n        emit AccessGranted(msg.sender, doctor, canRead, canWrite);\r\n    }\r\n    \r\n    // Patient revokes access from a doctor\r\n    function revokeAccess(address doctor) public onlyPatient {\r\n        delete accessPermissions[msg.sender][doctor];\r\n        emit AccessRevoked(msg.sender, doctor);\r\n    }\r\n    \r\n    // Doctor adds a record to the patient's file (requires write access)\r\n    function addRecord(address patient, string memory date, string memory data, string memory documentName, string memory documentCid) public onlyDoctor {\r\n        require(accessPermissions[patient][msg.sender].canWrite, \"No write access to patient's records\");\r\n        \r\n        HealthRecord memory newRecord = HealthRecord({\r\n            date: date,\r\n            data: data,\r\n            doctorName: doctors[msg.sender].name,\r\n            documentName: documentName,\r\n            documentCid: documentCid,\r\n            owner: patient\r\n        });\r\n        \r\n        patientRecords[patient].push(newRecord);\r\n        emit RecordAdded(patient, msg.sender, documentName);\r\n    }\r\n\r\n    // Patient adds a record to their own profile without needing permission\r\n    function addMyRecord(string memory date, string memory data, string memory documentName, string memory documentCid) public onlyPatient {\r\n        HealthRecord memory newRecord = HealthRecord({\r\n            date: date,\r\n            data: data,\r\n            doctorName: \"\", // No doctor associated if added by the patient\r\n            documentName: documentName,\r\n            documentCid: documentCid,\r\n            owner: msg.sender\r\n        });\r\n        \r\n        patientRecords[msg.sender].push(newRecord);\r\n        emit RecordAdded(msg.sender, msg.sender, documentName);\r\n    }\r\n\r\n    // Patient or doctor views a patient's records (requires read access)\r\n    function getRecords(address patient) public view returns (HealthRecord[] memory) {\r\n        require(\r\n            msg.sender == patient || \r\n            (doctors[msg.sender].aadharId != 0 && accessPermissions[patient][msg.sender].canRead),\r\n            \"No read access to patient's records\"\r\n        );\r\n        \r\n        return patientRecords[patient];\r\n    }\r\n\r\n    // Patient views own records\r\n    function getMyRecords() public view onlyPatient returns (HealthRecord[] memory) {\r\n        return patientRecords[msg.sender];\r\n    }\r\n\r\n    // Doctor views their patients\r\n    function getMyPatients() public view onlyDoctor returns (address[] memory) {\r\n        return doctorPatients[msg.sender];\r\n    }\r\n}\r\n\r\n\r\n",
  "sourcePath": "C:\\Users\\heman\\OneDrive\\Desktop\\EHR\\EHR\\contracts\\ElectronicHealthRecords.sol",
  "compiler": {
    "name": "solc",
    "version": "0.8.19+commit.7dd6d404.Emscripten.clang"
  },
  "schemaVersion": "3.4.16",
  "updatedAt": "2024-11-03T08:42:27.289Z",
  "networkType": "ethereum",
  "devdoc": {
    "kind": "dev",
    "methods": {},
    "version": 1
  },
  "userdoc": {
    "kind": "user",
    "methods": {},
    "version": 1
  }
}